{"abi":[{"type":"constructor","inputs":[],"stateMutability":"nonpayable"},{"type":"function","name":"MAX_DURATION","inputs":[],"outputs":[{"name":"","type":"uint256","internalType":"uint256"}],"stateMutability":"view"},{"type":"function","name":"MIN_DEPOSIT","inputs":[],"outputs":[{"name":"","type":"uint256","internalType":"uint256"}],"stateMutability":"view"},{"type":"function","name":"alarms","inputs":[{"name":"","type":"uint256","internalType":"uint256"}],"outputs":[{"name":"user","type":"address","internalType":"address"},{"name":"amount","type":"uint256","internalType":"uint256"},{"name":"startTime","type":"uint256","internalType":"uint256"},{"name":"endTime","type":"uint256","internalType":"uint256"},{"name":"status","type":"uint8","internalType":"enum AlarmClock.AlarmStatus"},{"name":"createdAt","type":"uint256","internalType":"uint256"}],"stateMutability":"view"},{"type":"function","name":"cancelAlarm","inputs":[{"name":"alarmId","type":"uint256","internalType":"uint256"}],"outputs":[],"stateMutability":"nonpayable"},{"type":"function","name":"checkExpiredAlarm","inputs":[{"name":"alarmId","type":"uint256","internalType":"uint256"}],"outputs":[],"stateMutability":"nonpayable"},{"type":"function","name":"createAlarm","inputs":[{"name":"startTime","type":"uint256","internalType":"uint256"},{"name":"endTime","type":"uint256","internalType":"uint256"}],"outputs":[{"name":"","type":"uint256","internalType":"uint256"}],"stateMutability":"payable"},{"type":"function","name":"getAlarm","inputs":[{"name":"alarmId","type":"uint256","internalType":"uint256"}],"outputs":[{"name":"","type":"tuple","internalType":"struct AlarmClock.Alarm","components":[{"name":"user","type":"address","internalType":"address"},{"name":"amount","type":"uint256","internalType":"uint256"},{"name":"startTime","type":"uint256","internalType":"uint256"},{"name":"endTime","type":"uint256","internalType":"uint256"},{"name":"status","type":"uint8","internalType":"enum AlarmClock.AlarmStatus"},{"name":"createdAt","type":"uint256","internalType":"uint256"}]}],"stateMutability":"view"},{"type":"function","name":"getContractBalance","inputs":[],"outputs":[{"name":"","type":"uint256","internalType":"uint256"}],"stateMutability":"view"},{"type":"function","name":"getUserAlarmCount","inputs":[{"name":"user","type":"address","internalType":"address"}],"outputs":[{"name":"","type":"uint256","internalType":"uint256"}],"stateMutability":"view"},{"type":"function","name":"getUserAlarms","inputs":[{"name":"user","type":"address","internalType":"address"}],"outputs":[{"name":"","type":"uint256[]","internalType":"uint256[]"}],"stateMutability":"view"},{"type":"function","name":"nextAlarmId","inputs":[],"outputs":[{"name":"","type":"uint256","internalType":"uint256"}],"stateMutability":"view"},{"type":"function","name":"owner","inputs":[],"outputs":[{"name":"","type":"address","internalType":"address"}],"stateMutability":"view"},{"type":"function","name":"renounceOwnership","inputs":[],"outputs":[],"stateMutability":"nonpayable"},{"type":"function","name":"totalDeposited","inputs":[],"outputs":[{"name":"","type":"uint256","internalType":"uint256"}],"stateMutability":"view"},{"type":"function","name":"totalForfeited","inputs":[],"outputs":[{"name":"","type":"uint256","internalType":"uint256"}],"stateMutability":"view"},{"type":"function","name":"transferOwnership","inputs":[{"name":"newOwner","type":"address","internalType":"address"}],"outputs":[],"stateMutability":"nonpayable"},{"type":"function","name":"triggerAlarm","inputs":[{"name":"alarmId","type":"uint256","internalType":"uint256"}],"outputs":[],"stateMutability":"nonpayable"},{"type":"function","name":"userAlarms","inputs":[{"name":"","type":"address","internalType":"address"},{"name":"","type":"uint256","internalType":"uint256"}],"outputs":[{"name":"","type":"uint256","internalType":"uint256"}],"stateMutability":"view"},{"type":"function","name":"withdrawForfeited","inputs":[{"name":"amount","type":"uint256","internalType":"uint256"}],"outputs":[],"stateMutability":"nonpayable"},{"type":"event","name":"AlarmCancelled","inputs":[{"name":"alarmId","type":"uint256","indexed":true,"internalType":"uint256"},{"name":"user","type":"address","indexed":true,"internalType":"address"},{"name":"amount","type":"uint256","indexed":false,"internalType":"uint256"}],"anonymous":false},{"type":"event","name":"AlarmCreated","inputs":[{"name":"alarmId","type":"uint256","indexed":true,"internalType":"uint256"},{"name":"user","type":"address","indexed":true,"internalType":"address"},{"name":"amount","type":"uint256","indexed":false,"internalType":"uint256"},{"name":"startTime","type":"uint256","indexed":false,"internalType":"uint256"},{"name":"endTime","type":"uint256","indexed":false,"internalType":"uint256"}],"anonymous":false},{"type":"event","name":"AlarmExpired","inputs":[{"name":"alarmId","type":"uint256","indexed":true,"internalType":"uint256"},{"name":"user","type":"address","indexed":true,"internalType":"address"},{"name":"amount","type":"uint256","indexed":false,"internalType":"uint256"}],"anonymous":false},{"type":"event","name":"AlarmTriggered","inputs":[{"name":"alarmId","type":"uint256","indexed":true,"internalType":"uint256"},{"name":"user","type":"address","indexed":true,"internalType":"address"},{"name":"amount","type":"uint256","indexed":false,"internalType":"uint256"}],"anonymous":false},{"type":"event","name":"OwnershipTransferred","inputs":[{"name":"previousOwner","type":"address","indexed":true,"internalType":"address"},{"name":"newOwner","type":"address","indexed":true,"internalType":"address"}],"anonymous":false},{"type":"error","name":"AlarmAlreadyCancelled","inputs":[]},{"type":"error","name":"AlarmAlreadyEnded","inputs":[]},{"type":"error","name":"AlarmAlreadyExpired","inputs":[]},{"type":"error","name":"AlarmAlreadyTriggered","inputs":[]},{"type":"error","name":"AlarmNotExist","inputs":[]},{"type":"error","name":"AlarmNotOwner","inputs":[]},{"type":"error","name":"AlarmNotYetStarted","inputs":[]},{"type":"error","name":"AmountTooSmall","inputs":[]},{"type":"error","name":"DurationTooLong","inputs":[]},{"type":"error","name":"InvalidTimeRange","inputs":[]},{"type":"error","name":"OwnableInvalidOwner","inputs":[{"name":"owner","type":"address","internalType":"address"}]},{"type":"error","name":"OwnableUnauthorizedAccount","inputs":[{"name":"account","type":"address","internalType":"address"}]},{"type":"error","name":"ReentrancyGuardReentrantCall","inputs":[]},{"type":"error","name":"TransferFailed","inputs":[]},{"type":"error","name":"ZeroAmount","inputs":[]}],"bytecode":{"object":"0x608060405234801562000010575f80fd5b50335f73ffffffffffffffffffffffffffffffffffffffff168173ffffffffffffffffffffffffffffffffffffffff160362000085575f6040517f1e4fbdf70000000000000000000000000000000000000000000000000000000081526004016200007c919062000203565b60405180910390fd5b6200009681620000cd60201b60201c565b506001620000b9620000ad6200018e60201b60201c565b620001b760201b60201c565b5f018190555060016003819055506200021e565b5f805f9054906101000a900473ffffffffffffffffffffffffffffffffffffffff169050815f806101000a81548173ffffffffffffffffffffffffffffffffffffffff021916908373ffffffffffffffffffffffffffffffffffffffff1602179055508173ffffffffffffffffffffffffffffffffffffffff168173ffffffffffffffffffffffffffffffffffffffff167f8be0079c531659141344cd1fd0a4f28419497f9722a3daafe3b4186f6b6457e060405160405180910390a35050565b5f7f9b779b17422d0df92223018b32b4d1fa46e071723d6817e2486d003becc55f005f1b905090565b5f819050919050565b5f73ffffffffffffffffffffffffffffffffffffffff82169050919050565b5f620001eb82620001c0565b9050919050565b620001fd81620001df565b82525050565b5f602082019050620002185f830184620001f2565b92915050565b611e9e806200022c5f395ff3fe608060405260043610610113575f3560e01c8063bc1d1c991161009f578063e1e158a511610063578063e1e158a5146103ae578063f2fde38b146103d8578063f3ef48d814610400578063f6e19fce14610428578063ff50abdc1461045257610113565b8063bc1d1c991461028f578063bef4f95d146102cb578063c451abc91461030c578063d3442dc014610348578063daca5dec1461038457610113565b80636f9fb98a116100e65780636f9fb98a146101bf578063715018a6146101e957806389d3545a146101ff5780638da5cb5b1461023b578063b1724b461461026557610113565b80633d762ce814610117578063497fffee1461013f5780634e50bd94146101675780635b9d895c14610197575b5f80fd5b348015610122575f80fd5b5061013d60048036038101906101389190611871565b61047c565b005b34801561014a575f80fd5b5061016560048036038101906101609190611871565b610657565b005b610181600480360381019061017c919061189c565b61095a565b60405161018e91906118e9565b60405180910390f35b3480156101a2575f80fd5b506101bd60048036038101906101b89190611871565b610c92565b005b3480156101ca575f80fd5b506101d3610da1565b6040516101e091906118e9565b60405180910390f35b3480156101f4575f80fd5b506101fd610da8565b005b34801561020a575f80fd5b506102256004803603810190610220919061195c565b610dbb565b6040516102329190611a3e565b60405180910390f35b348015610246575f80fd5b5061024f610ee8565b60405161025c9190611a6d565b60405180910390f35b348015610270575f80fd5b50610279610f0f565b60405161028691906118e9565b60405180910390f35b34801561029a575f80fd5b506102b560048036038101906102b09190611871565b610f15565b6040516102c29190611b81565b60405180910390f35b3480156102d6575f80fd5b506102f160048036038101906102ec9190611871565b610ff6565b60405161030396959493929190611ba9565b60405180910390f35b348015610317575f80fd5b50610332600480360381019061032d919061195c565b611059565b60405161033f91906118e9565b60405180910390f35b348015610353575f80fd5b5061036e60048036038101906103699190611c08565b6110a2565b60405161037b91906118e9565b60405180910390f35b34801561038f575f80fd5b506103986110cd565b6040516103a591906118e9565b60405180910390f35b3480156103b9575f80fd5b506103c26110d3565b6040516103cf91906118e9565b60405180910390f35b3480156103e3575f80fd5b506103fe60048036038101906103f9919061195c565b6110de565b005b34801561040b575f80fd5b5061042660048036038101906104219190611871565b611162565b005b348015610433575f80fd5b5061043c6115bc565b60405161044991906118e9565b60405180910390f35b34801561045d575f80fd5b506104666115c2565b60405161047391906118e9565b60405180910390f35b5f60015f8381526020019081526020015f2090505f73ffffffffffffffffffffffffffffffffffffffff16815f015f9054906101000a900473ffffffffffffffffffffffffffffffffffffffff1673ffffffffffffffffffffffffffffffffffffffff1603610517576040517f56dda93500000000000000000000000000000000000000000000000000000000815260040160405180910390fd5b5f600381111561052a57610529611a95565b5b816004015f9054906101000a900460ff16600381111561054d5761054c611a95565b5b146105585750610654565b80600301544211610595576040517fccbc1f4900000000000000000000000000000000000000000000000000000000815260040160405180910390fd5b6002816004015f6101000a81548160ff021916908360038111156105bc576105bb611a95565b5b0217905550806001015460055f8282546105d69190611c73565b92505081905550805f015f9054906101000a900473ffffffffffffffffffffffffffffffffffffffff1673ffffffffffffffffffffffffffffffffffffffff16827fb8b381603f989fdb614aa55854b861a3d131660cd42fa8614cadf8bc5ee62e6a836001015460405161064a91906118e9565b60405180910390a3505b50565b61065f6115c8565b5f60015f8381526020019081526020015f2090505f73ffffffffffffffffffffffffffffffffffffffff16815f015f9054906101000a900473ffffffffffffffffffffffffffffffffffffffff1673ffffffffffffffffffffffffffffffffffffffff16036106fa576040517f56dda93500000000000000000000000000000000000000000000000000000000815260040160405180910390fd5b3373ffffffffffffffffffffffffffffffffffffffff16815f015f9054906101000a900473ffffffffffffffffffffffffffffffffffffffff1673ffffffffffffffffffffffffffffffffffffffff1614610781576040517f2ec4ee9100000000000000000000000000000000000000000000000000000000815260040160405180910390fd5b5f600381111561079457610793611a95565b5b816004015f9054906101000a900460ff1660038111156107b7576107b6611a95565b5b146107ee576040517fcd1256ef00000000000000000000000000000000000000000000000000000000815260040160405180910390fd5b8060020154421061082b576040517fcd1256ef00000000000000000000000000000000000000000000000000000000815260040160405180910390fd5b6003816004015f6101000a81548160ff0219169083600381111561085257610851611a95565b5b02179055505f3373ffffffffffffffffffffffffffffffffffffffff16826001015460405161088090611cd3565b5f6040518083038185875af1925050503d805f81146108ba576040519150601f19603f3d011682016040523d82523d5f602084013e6108bf565b606091505b50509050806108fa576040517f90b8ec1800000000000000000000000000000000000000000000000000000000815260040160405180910390fd5b3373ffffffffffffffffffffffffffffffffffffffff16837f35ed6816024135391be92ba854d517ba20e0399da9077eec38bdb181b671792c846001015460405161094591906118e9565b60405180910390a350506109576115ea565b50565b5f6109636115c8565b5f340361099c576040517f1f2a200500000000000000000000000000000000000000000000000000000000815260040160405180910390fd5b662386f26fc100003410156109dd576040517fc2f5625a00000000000000000000000000000000000000000000000000000000815260040160405180910390fd5b818310610a16576040517f536a71af00000000000000000000000000000000000000000000000000000000815260040160405180910390fd5b610e108383610a259190611ce7565b1115610a5d576040517f9529f50600000000000000000000000000000000000000000000000000000000815260040160405180910390fd5b42831015610a97576040517f536a71af00000000000000000000000000000000000000000000000000000000815260040160405180910390fd5b5f60035f815480929190610aaa90611d1a565b9190505590506040518060c001604052803373ffffffffffffffffffffffffffffffffffffffff1681526020013481526020018581526020018481526020015f6003811115610afc57610afb611a95565b5b81526020014281525060015f8381526020019081526020015f205f820151815f015f6101000a81548173ffffffffffffffffffffffffffffffffffffffff021916908373ffffffffffffffffffffffffffffffffffffffff1602179055506020820151816001015560408201518160020155606082015181600301556080820151816004015f6101000a81548160ff02191690836003811115610ba257610ba1611a95565b5b021790555060a0820151816005015590505060025f3373ffffffffffffffffffffffffffffffffffffffff1673ffffffffffffffffffffffffffffffffffffffff1681526020019081526020015f2081908060018154018082558091505060019003905f5260205f20015f90919091909150553460045f828254610c269190611c73565b925050819055503373ffffffffffffffffffffffffffffffffffffffff16817fa585a3ed59206db9b36954abb14bd518571fc6d97fa96fec3ba91a3ac95bfc54348787604051610c7893929190611d61565b60405180910390a380915050610c8c6115ea565b92915050565b610c9a611604565b600554811115610cdf576040517f08c379a0000000000000000000000000000000000000000000000000000000008152600401610cd690611df0565b60405180910390fd5b8060055f828254610cf09190611ce7565b925050819055505f610d00610ee8565b73ffffffffffffffffffffffffffffffffffffffff1682604051610d2390611cd3565b5f6040518083038185875af1925050503d805f8114610d5d576040519150601f19603f3d011682016040523d82523d5f602084013e610d62565b606091505b5050905080610d9d576040517f90b8ec1800000000000000000000000000000000000000000000000000000000815260040160405180910390fd5b5050565b5f47905090565b610db0611604565b610db95f61168b565b565b60605f60025f8473ffffffffffffffffffffffffffffffffffffffff1673ffffffffffffffffffffffffffffffffffffffff1681526020019081526020015f208054905067ffffffffffffffff811115610e1857610e17611e0e565b5b604051908082528060200260200182016040528015610e465781602001602082028036833780820191505090505b5090505f5b8151811015610ede5760025f8573ffffffffffffffffffffffffffffffffffffffff1673ffffffffffffffffffffffffffffffffffffffff1681526020019081526020015f208181548110610ea357610ea2611e3b565b5b905f5260205f200154828281518110610ebf57610ebe611e3b565b5b6020026020010181815250508080610ed690611d1a565b915050610e4b565b5080915050919050565b5f805f9054906101000a900473ffffffffffffffffffffffffffffffffffffffff16905090565b610e1081565b610f1d6117e2565b60015f8381526020019081526020015f206040518060c00160405290815f82015f9054906101000a900473ffffffffffffffffffffffffffffffffffffffff1673ffffffffffffffffffffffffffffffffffffffff1673ffffffffffffffffffffffffffffffffffffffff168152602001600182015481526020016002820154815260200160038201548152602001600482015f9054906101000a900460ff166003811115610fcf57610fce611a95565b5b6003811115610fe157610fe0611a95565b5b81526020016005820154815250509050919050565b6001602052805f5260405f205f91509050805f015f9054906101000a900473ffffffffffffffffffffffffffffffffffffffff1690806001015490806002015490806003015490806004015f9054906101000a900460ff16908060050154905086565b5f60025f8373ffffffffffffffffffffffffffffffffffffffff1673ffffffffffffffffffffffffffffffffffffffff1681526020019081526020015f20805490509050919050565b6002602052815f5260405f2081815481106110bb575f80fd5b905f5260205f20015f91509150505481565b60055481565b662386f26fc1000081565b6110e6611604565b5f73ffffffffffffffffffffffffffffffffffffffff168173ffffffffffffffffffffffffffffffffffffffff1603611156575f6040517f1e4fbdf700000000000000000000000000000000000000000000000000000000815260040161114d9190611a6d565b60405180910390fd5b61115f8161168b565b50565b61116a6115c8565b5f60015f8381526020019081526020015f2090505f73ffffffffffffffffffffffffffffffffffffffff16815f015f9054906101000a900473ffffffffffffffffffffffffffffffffffffffff1673ffffffffffffffffffffffffffffffffffffffff1603611205576040517f56dda93500000000000000000000000000000000000000000000000000000000815260040160405180910390fd5b3373ffffffffffffffffffffffffffffffffffffffff16815f015f9054906101000a900473ffffffffffffffffffffffffffffffffffffffff1673ffffffffffffffffffffffffffffffffffffffff161461128c576040517f2ec4ee9100000000000000000000000000000000000000000000000000000000815260040160405180910390fd5b5f600381111561129f5761129e611a95565b5b816004015f9054906101000a900460ff1660038111156112c2576112c1611a95565b5b1461141157600160038111156112db576112da611a95565b5b816004015f9054906101000a900460ff1660038111156112fe576112fd611a95565b5b03611335576040517f0e9218f300000000000000000000000000000000000000000000000000000000815260040160405180910390fd5b6002600381111561134957611348611a95565b5b816004015f9054906101000a900460ff16600381111561136c5761136b611a95565b5b036113a3576040517f0e19022600000000000000000000000000000000000000000000000000000000815260040160405180910390fd5b6003808111156113b6576113b5611a95565b5b816004015f9054906101000a900460ff1660038111156113d9576113d8611a95565b5b03611410576040517f0566a9be00000000000000000000000000000000000000000000000000000000815260040160405180910390fd5b5b806002015442101561144f576040517fcd1256ef00000000000000000000000000000000000000000000000000000000815260040160405180910390fd5b806003015442111561148d576040517fccbc1f4900000000000000000000000000000000000000000000000000000000815260040160405180910390fd5b6001816004015f6101000a81548160ff021916908360038111156114b4576114b3611a95565b5b02179055505f3373ffffffffffffffffffffffffffffffffffffffff1682600101546040516114e290611cd3565b5f6040518083038185875af1925050503d805f811461151c576040519150601f19603f3d011682016040523d82523d5f602084013e611521565b606091505b505090508061155c576040517f90b8ec1800000000000000000000000000000000000000000000000000000000815260040160405180910390fd5b3373ffffffffffffffffffffffffffffffffffffffff16837f692182334a3cc06f9d5caf5508acb2722136bb8f9c1a6ca19e57b4e15058bdaf84600101546040516115a791906118e9565b60405180910390a350506115b96115ea565b50565b60035481565b60045481565b6115d061174c565b60026115e26115dd61178d565b6117b6565b5f0181905550565b60016115fc6115f761178d565b6117b6565b5f0181905550565b61160c6117bf565b73ffffffffffffffffffffffffffffffffffffffff1661162a610ee8565b73ffffffffffffffffffffffffffffffffffffffff16146116895761164d6117bf565b6040517f118cdaa70000000000000000000000000000000000000000000000000000000081526004016116809190611a6d565b60405180910390fd5b565b5f805f9054906101000a900473ffffffffffffffffffffffffffffffffffffffff169050815f806101000a81548173ffffffffffffffffffffffffffffffffffffffff021916908373ffffffffffffffffffffffffffffffffffffffff1602179055508173ffffffffffffffffffffffffffffffffffffffff168173ffffffffffffffffffffffffffffffffffffffff167f8be0079c531659141344cd1fd0a4f28419497f9722a3daafe3b4186f6b6457e060405160405180910390a35050565b6117546117c6565b1561178b576040517f3ee5aeb500000000000000000000000000000000000000000000000000000000815260040160405180910390fd5b565b5f7f9b779b17422d0df92223018b32b4d1fa46e071723d6817e2486d003becc55f005f1b905090565b5f819050919050565b5f33905090565b5f60026117d96117d461178d565b6117b6565b5f015414905090565b6040518060c001604052805f73ffffffffffffffffffffffffffffffffffffffff1681526020015f81526020015f81526020015f81526020015f600381111561182e5761182d611a95565b5b81526020015f81525090565b5f80fd5b5f819050919050565b6118508161183e565b811461185a575f80fd5b50565b5f8135905061186b81611847565b92915050565b5f602082840312156118865761188561183a565b5b5f6118938482850161185d565b91505092915050565b5f80604083850312156118b2576118b161183a565b5b5f6118bf8582860161185d565b92505060206118d08582860161185d565b9150509250929050565b6118e38161183e565b82525050565b5f6020820190506118fc5f8301846118da565b92915050565b5f73ffffffffffffffffffffffffffffffffffffffff82169050919050565b5f61192b82611902565b9050919050565b61193b81611921565b8114611945575f80fd5b50565b5f8135905061195681611932565b92915050565b5f602082840312156119715761197061183a565b5b5f61197e84828501611948565b91505092915050565b5f81519050919050565b5f82825260208201905092915050565b5f819050602082019050919050565b6119b98161183e565b82525050565b5f6119ca83836119b0565b60208301905092915050565b5f602082019050919050565b5f6119ec82611987565b6119f68185611991565b9350611a01836119a1565b805f5b83811015611a31578151611a1888826119bf565b9750611a23836119d6565b925050600181019050611a04565b5085935050505092915050565b5f6020820190508181035f830152611a5681846119e2565b905092915050565b611a6781611921565b82525050565b5f602082019050611a805f830184611a5e565b92915050565b611a8f81611921565b82525050565b7f4e487b71000000000000000000000000000000000000000000000000000000005f52602160045260245ffd5b60048110611ad357611ad2611a95565b5b50565b5f819050611ae382611ac2565b919050565b5f611af282611ad6565b9050919050565b611b0281611ae8565b82525050565b60c082015f820151611b1c5f850182611a86565b506020820151611b2f60208501826119b0565b506040820151611b4260408501826119b0565b506060820151611b5560608501826119b0565b506080820151611b686080850182611af9565b5060a0820151611b7b60a08501826119b0565b50505050565b5f60c082019050611b945f830184611b08565b92915050565b611ba381611ae8565b82525050565b5f60c082019050611bbc5f830189611a5e565b611bc960208301886118da565b611bd660408301876118da565b611be360608301866118da565b611bf06080830185611b9a565b611bfd60a08301846118da565b979650505050505050565b5f8060408385031215611c1e57611c1d61183a565b5b5f611c2b85828601611948565b9250506020611c3c8582860161185d565b9150509250929050565b7f4e487b71000000000000000000000000000000000000000000000000000000005f52601160045260245ffd5b5f611c7d8261183e565b9150611c888361183e565b9250828201905080821115611ca057611c9f611c46565b5b92915050565b5f81905092915050565b50565b5f611cbe5f83611ca6565b9150611cc982611cb0565b5f82019050919050565b5f611cdd82611cb3565b9150819050919050565b5f611cf18261183e565b9150611cfc8361183e565b9250828203905081811115611d1457611d13611c46565b5b92915050565b5f611d248261183e565b91507fffffffffffffffffffffffffffffffffffffffffffffffffffffffffffffffff8203611d5657611d55611c46565b5b600182019050919050565b5f606082019050611d745f8301866118da565b611d8160208301856118da565b611d8e60408301846118da565b949350505050565b5f82825260208201905092915050565b7f4578636565647320666f7266656974656420616d6f756e7400000000000000005f82015250565b5f611dda601883611d96565b9150611de582611da6565b602082019050919050565b5f6020820190508181035f830152611e0781611dce565b9050919050565b7f4e487b71000000000000000000000000000000000000000000000000000000005f52604160045260245ffd5b7f4e487b71000000000000000000000000000000000000000000000000000000005f52603260045260245ffdfea26469706673582212207a4909b44f41878f2f228a1bff2da2cd1d4b1fbe630b78097026369522654c9764736f6c63430008140033","linkReferences":{}},"methodIdentifiers":{"MAX_DURATION()":"b1724b46","MIN_DEPOSIT()":"e1e158a5","alarms(uint256)":"bef4f95d","cancelAlarm(uint256)":"497fffee","checkExpiredAlarm(uint256)":"3d762ce8","createAlarm(uint256,uint256)":"4e50bd94","getAlarm(uint256)":"bc1d1c99","getContractBalance()":"6f9fb98a","getUserAlarmCount(address)":"c451abc9","getUserAlarms(address)":"89d3545a","nextAlarmId()":"f6e19fce","owner()":"8da5cb5b","renounceOwnership()":"715018a6","totalDeposited()":"ff50abdc","totalForfeited()":"daca5dec","transferOwnership(address)":"f2fde38b","triggerAlarm(uint256)":"f3ef48d8","userAlarms(address,uint256)":"d3442dc0","withdrawForfeited(uint256)":"5b9d895c"},"id":0}